:020000020000FC
:100000000FE50DBF02E00EBF00E007BB86D000E8A1
:1000100005BFA2D0B4D094D0B2D092D0B2D090D0FC
:10002000B2D0A4D0B2D08CD0F1E0ECE122E01AE062
:1000300011D086D01591103031F0103269F0ABD06C
:1000400009D096D0F7CF2A95A9F3A3D01AE002D011
:1000500077D0F0CF1CB90895F1E0E4E315911030AA
:1000600021F099D0F7DF86D0F9CFF1E0EAE38FD025
:100070001591103021F08FD0EDDF62D0F9CF89D00B
:1000800000E0009360000093610000936200009321
:1000900063007FD055D0109163007DD051D0109176
:1000A000620079D04DD01091610075D049D0109187
:1000B000600071D025C0EDDF009362007091630095
:1000C0007395723019F0709362001AC070936200D9
:1000D0006430A9F2DEDF00936100609162006395F5
:1000E0006A3049F3609362000BC0D3DF0093600075
:1000F000509161005395563069F35093610000C0F0
:10010000C8DF4091600043954A3079F34093600026
:1001100033D0F6CF38D02AD0FFCF43C00D4461741E
:1001200041514D6F6E5F76312E30000D32303332DB
:1001300035373420204C4F414400535652230000A1
:1001400025E0000000000000000000002A95E9F70B
:100150004030A1F04A95A1F7D0E3C3E000000000D1
:100160002197F1F7403051F04A95B1F748E2E8CFD6
:100170004AE0F2CF44E1F0CF48ECEECF089508E337
:100180000DC00CE00BC001E009C006E007C000E8AC
:1001900005C000EC03C010930021089500930020D7
:1001A000089500E000BD09E109B908E10AB906E8CF
:1001B00000BD08951A950DD001930D3011F01A95D8
:1001C000D1F700E0008308950BB10078E9F30CB19A
:1001D0000895FADF0F9302D00F9108950CB90BB177
:1001E0000072E9F308950591003011F0F7DFFBCFBD
:0C01F00008950AE0F3DF0DE0F1DF089550
:00000001FF
