:020000020000FC
:040000001FC077C0E6
:100040000027009363000093600000936100009319
:10005000620000E40BBF0FE50DBF02E00EBF0AEF28
:1000600007BB02E006B91ED002E805BF00E8009316
:1000700064008AD2789418D086B3817019F400C0D5
:1000800006D4F9CFA6D2F7CF0591003029F06BD274
:10009000F9D440D257D2F8CF08955FD237D208951D
:1000A000FFCFEBC4D2C4FEC40F930FF500916000E4
:1000B0000C3318F4009360001AC00027009360000E
:1000C0000091610003950C3319F0009361000FC09B
:1000D0000027009361000091620003950336C1F38D
:1000E0000093620004C000270093620000C00F91DB
:1000F00008950F930FB70F930091630003950C338E
:1001000030F4009363000F910FBF0F9118950027F3
:1001100000936300009160000395009360000F91CD
:100120000FBF0F9118950D44617441514D6F6E5F73
:1001300076312E30000032303332353734000D53F3
:10014000555045525649534F522300000D57617286
:100150006E696E673A205468652073797374656DB3
:1001600020757074696D652073686F756C64206F9D
:100170006E6C79206265207265736574206D616EA6
:1001800075616C6C7920696E207468652065766590
:100190006E74206F66206D61696E74656E616E634A
:1001A0006520776F726B2E000D506C656173652052
:1001B00070726573732027522720746F20726573E5
:1001C00065742074686520757074696D65206F7240
:1001D0002027432720746F2072657475726E207417
:1001E0006F207468652070726576696F7573206D15
:1001F000656E752E20000D53797374656D207570D2
:1002000074696D652072657365742E000D53797382
:1002100074656D20757074696D65206973207061F7
:10022000757365642E2050726573732027502720E4
:10023000746F20756E70617573652E2000000D530C
:10024000797374656D20757074696D653A2000006E
:100250000D4E4F44453E00000D4E65772073616D95
:10026000706C652073657420636170747572656469
:100270003A000D546F2076696577207468652073A5
:10028000756D206F66207468652063617074757287
:1002900065642073616D706C65732C20707265737A
:1002A0007320275327000D53756D206F6620636FF1
:1002B0006C6C65637465642073616D706C6573202C
:1002C0005B585858585D3A2000000D4375727265AE
:1002D0006E74207472696D206C6576656C2069732C
:1002E000205B58585D3A20000D536574206E657789
:1002F000207472696D206C6576656C205B58585D62
:100300003A2000000D4E6577205472696D206C65AF
:1003100076656C207365742E20507265737320456A
:100320006E74657220746F2072657475726E2074BD
:100330006F2070726576696F7573206D656E7500DC
:100340000D5B4572726F7220307831305D202D2048
:10035000496E76616C696420656E7472792E2050E6
:100360006C6561736520696E7365727420612076B7
:10037000616C69642053757065727669736F722061
:10038000636F6D6D616E64000D5B4572726F7220FC
:10039000307832305D202D20496E76616C696420A2
:1003A000656E7472792E20506C6561736520696E7C
:1003B0007365727420612076616C6964204E6F648D
:1003C0006520636F6D6D616E642E00000D5B45727C
:1003D000726F7220307832315D202D20496E766147
:1003E0006C69642076616C75652E20506C65617354
:1003F0006520696E73657274206120686578207667
:10040000616C7565206265747765656E2030783043
:100410003020616E6420307846462E000D5B4572B8
:10042000726F7220307832325D202D204D697373E7
:10043000696E672073616D706C652E20506C65610C
:1004400073652074616B6520612073616D706C65EC
:10045000206265666F7265207573696E67207468C7
:10046000652073756D20636F6D6D616E642E000085
:100470000D5B4572726F7220307832335D202D2013
:10048000496E76616C6964207472696D20636D6475
:100490002E20506C656173652072656C6F616420FD
:1004A0007468652070616765206265666F7265209B
:1004B000696E70757474696E672061206E6577204F
:1004C0007472696D206C6576656C2E004552524FD2
:1004D0005220434845434B205445524D00000D5097
:1004E0007265737320456E74657220746F20726537
:1004F0007475726E20746F207468652070726576F2
:10050000696F7573206D656E752E200048E20EC010
:1005100044E60CC048EC0AC044E014C04AE012C0F3
:1005200044E110C040E50EC048EC0CC045E00000BE
:1005300000000000000000004A95E9F7403061F03B
:100540004A95A1F7D0E3C3E0000000002197F1F73E
:10055000403011F04A95B1F7089501E007C000E876
:1005600005C000EC03C00093002108950093002013
:1005700008950591003021F0F6DFCCDFE3DF84CD74
:100580000895009300180895DDDF08E3009300202C
:10059000CDDF08E300930020C9DF0CE000930020CA
:1005A000C5DFDBDFB3DF06E000930020BFDFF1E053
:1005B000E6E2ACDF00270CE065D20027D0DF64DD87
:1005C0006CD20027CEDFF1E0E6E3B0DF5DDDAADF2D
:1005D00008954F925F926F927F9266DD5EDDF2E04A
:1005E000E0E5A4DF0CE04ED2BADF4EDDB0E0A5E6D8
:1005F0005FEF6627772791E086B3817069F01AD1A3
:1006000035D1013479F0043541F0033539F000304B
:1006100039F497F749DDF0CF76C07AC02CD1F2C01B
:100620002AD1EDC09093001086B38470E9F38091D5
:1006300000108D9301E007B90000000000000027C2
:1006400007B930906400831528F060DF73955A95E0
:1006500049F705C05BDF63955A9521F700C081DF3C
:100660001CD21BD2F2E0E8E561DF11D216D2062FD0
:1006700019D2512E402E072F15D2712E602E0CE468
:1006800072DF0CB95FDF0AE36EDF0CB95BDF042DAC
:100690006ADF0CB957DF052D66DF0CB953DF00E2C6
:1006A00062DF0CB94FDF08E45EDF0CB94BDF0AE311
:1006B0005ADF0CB947DF062D56DF0CB943DF072D93
:1006C00052DF0CB93FDFE9D1F2E0E2E72FDFE5D1FD
:1006D000DED1E3D1F4E0EEEDDAD128DF86B381702C
:1006E00091F0A8D086B3817071F0C0D0033541F08D
:1006F0000D3029F0003029F48FF7D6DCEFCF6DCF25
:100700004AC0B9D082C07F906F905F904F9008959B
:10071000F2E0EAEC0BDFC1D1BAD100916400C2D1A2
:100720000CB910DF1CB90EDFF2E0E8EE22E0FEDECD
:10073000B4D1ADD1B9DC86B3817029F3E7DE7AD0CC
:10074000E5DE0030B9F3003370F00A3328F40D30E1
:1007500051F00CB900530AC0013428F0073418F4E2
:100760000CB9075303C00CB986D046C02A9569F46A
:10077000040D0093640091D1F3E0E4E0D7DE8DD165
:1007800086D158D00D30E9F728CF402E440C440CC8
:10079000440C440CCFCF0F930FB70F93B0E0A5E6F6
:1007A0005FEF00241124222433240D901D90200C8F
:1007B000311C5A95D1F7F2E0E6EAB8DE6ED16DD180
:1007C00066D1032D6FD1512E402E022D6BD1712E8B
:1007D000602E042D0CB9B6DE052D0CB9B3DE062D46
:1007E0000CB9B0DE072D0CB9ADDE0F910FBF0F9124
:1007F000BB27AA2752D110C0F3E0ECEC08C0F3E00D
:10080000E8E805C0F4E0ECE102C0F4E0E0E78EDEE9
:1008100044D143D13CD18ADE40D1F4E0EEED37D172
:1008200085DE42DC86B3817021F004D00D30C9F73B
:10083000D4CE69CF39DC86B38170B9F00BB10078C2
:10084000C9F30CB112C086B3817079F42DDC3FD0AE
:100850000BB10078C1F30CB108C086B3817029F4E4
:100860000BB10078D1F30CB100C008950CB92BB1D5
:100870002072E9F3089500EC00930020F4E0ECEC22
:100880000591003019F06FDE45DEFACF089505DCE2
:10089000F1E0EEE34BDE0CE0F5D061DEF5DB9FF43A
:1008A00003DC86B3817081F4CEDFE0DF003551F0E8
:1008B000023559F0043529F0003041F4F5DB07D05A
:1008C000EECF8AC06EC06EC043C043C0A8C049DE30
:1008D00000916200FCD0E6D0512E402E00916100C4
:1008E000F6D0E0D0712E602E00916000F0D0802E06
:1008F000D9D0A12E902E08E436DE08DE0AE333DEDE
:1009000005DE042D30DE02DE052D2DDEFFDD00E2EA
:100910002ADEFCDD0DE427DEF9DD0AE324DEF6DD68
:10092000062D21DEF3DD072D1EDEF0DD00E21BDEED
:10093000EDDD03E518DEEADD0AE315DE082D21DE34
:10094000E5DD092D10DEE2DD0A2D0DDEDFDD089587
:100950000895F1E0ECE4EADDA0D09FD098D0F1E07A
:10096000E8EAE4DD9AD093D09FDB86B3817081F70B
:100970006ADF033419F0023529F0F6CF77DF00275C
:100980000CB985CF73DF00270093600000936100EE
:1009900000936200F1E0E6EF80D07FD078D07DD088
:1009A00046C0F89494DFF2E0ECE077D076D06FD0D8
:1009B00086B3817081F40ED059DF003539F00235ED
:1009C00039F0043549F0003051F5F2CF78945FCF1B
:1009D0000027BFCF42CFBCCF67DB79DFF2E0EEE389
:1009E000A5DD5BD05AD053D0042D0CB9ABDD052D5D
:1009F0000CB9A8DD0AE30CB9A5DD062D0CB9A2DD02
:100A0000072D0CB99FDD0AE30CB99CDD092D0CB94B
:100A100099DD0A2D0CB996DD40D03FD008C0F3E037
:100A2000E0E484DD3AD039D032D080DD24DF35D027
:100A3000F4E0EEED2CD07ADD37DB86B3817021F463
:100A400002DF0D30C9F723CF83CF00E000BD09E1FD
:100A500009B908E10AB906E800BD08951A950DD054
:100A600001930D3011F01A95D1F700E0008308953D
:100A70000BB10078E9F30CB10895FADF0F9302D0BF
:100A80000F9108950CB90BB10072E9F30895059127
:100A9000003011F0F7DFFBCF08950AE0F3DF0DE03F
:100AA000F1DF08951127F02E069506950695069517
:100AB0000F7020E3020F0A3310F027E0020F0F93AC
:100AC0000F2D13951130A1F31F910F9108951F93CE
:100AD00011270A5010F0105FFCCF065F010F1F9125
:020AE000089577
:00000001FF
