:020000020000FC
:040000001FC07BC0E2
:100040000027009363000093600000936100009319
:10005000620000E40BBF0FE50DBF02E00EBF0AEF28
:1000600007BB02E006B922D002E805BF00E8009312
:10007000640081D353E073D6A3C3ADC3789418D082
:1000800086B3817019F400C02ED5F9CFC4D3F7CF51
:100090000591003029F05ED357D633D34AD3F8CF39
:1000A000089552D32AD30895FFCF49C630C65CC6FF
:1000B0000F930FF5009160000C3318F4009360006B
:1000C0001AC00027009360000091610003950C3373
:1000D00019F0009361000FC00027009361000091A8
:1000E000620003950336C1F30093620004C0002749
:1000F0000093620000C00F9108950F930FB70F9304
:100100000091630003950F3330F4009363000F9167
:100110000FBF0F91189500270093630000916000B6
:100120000395009360000F910FBF0F9118950D4438
:10013000617441514D6F6E5F76312E300000323068
:1001400033323537342000000D535550455256494F
:10015000534F522300000D5761726E696E673A204B
:100160005468652073797374656D20757074696D5A
:10017000652073686F756C64206F6E6C79206265A2
:10018000207265736574206D616E75616C6C792089
:10019000696E20746865206576656E74206F6620D0
:1001A0006D61696E74656E616E636520776F726BE9
:1001B0002E000D506C65617365207072657373203D
:1001C00027522720746F20726573657420746865E8
:1001D00020757074696D6520636C6F636B206F723E
:1001E0002027432720746F2072657475726E207407
:1001F0006F207468652070726576696F7573206D05
:10020000656E752E20000D53797374656D207570C1
:1002100074696D652072657365742E000D53797372
:1002200074656D20757074696D65206973207061E7
:10023000757365642E2050726573732027502720D4
:10024000746F20756E70617573652E2000000D53FC
:10025000797374656D20757074696D653A2000005E
:100260000D4E4F44453E00000D4E65772073616D85
:10027000706C652073657420636170747572656459
:100280003A000D546F207669657720746865207395
:10029000756D206F66207468652063617074757277
:1002A00065642073616D706C65732C20707265736A
:1002B0007320275327000D53756D206F6620636FE1
:1002C0006C6C65637465642073616D706C6573201C
:1002D0005B585858585D3A2000000D43757272659E
:1002E0006E74207472696D206C6576656C2069731C
:1002F000205B58585D3A20000D536574206E657779
:10030000207472696D206C6576656C205B58585D51
:100310003A2000000D4E6577205472696D206C659F
:1003200076656C207365742E20507265737320455A
:100330006E74657220746F2072657475726E2074AD
:100340006F2070726576696F7573206D656E7500CC
:100350000D5B4572726F7220307831305D202D2038
:10036000496E76616C696420656E7472792E2050D6
:100370006C6561736520696E7365727420612076A7
:10038000616C69642053757065727669736F722051
:10039000636F6D6D616E64000D5B4572726F7220EC
:1003A000307832305D202D20496E76616C69642092
:1003B000656E7472792E20506C6561736520696E6C
:1003C0007365727420612076616C6964204E6F647D
:1003D0006520636F6D6D616E642E00000D5B45726C
:1003E000726F7220307832315D202D20496E766137
:1003F0006C69642076616C75652E20506C65617344
:100400006520696E73657274206120686578207656
:10041000616C7565206265747765656E2030783033
:100420003020616E6420307846462E000D5B4572A8
:10043000726F7220307832325D202D204D697373D7
:10044000696E672073616D706C652E20506C6561FC
:1004500073652074616B6520612073616D706C65DC
:10046000206265666F7265207573696E67207468B7
:10047000652073756D20636F6D6D616E642E000075
:100480000D5B4572726F7220307832335D202D2003
:10049000496E76616C6964207472696D20636D6465
:1004A0002E20506C656173652072656C6F616420ED
:1004B0007468652070616765206265666F7265208B
:1004C000696E70757474696E672061206E6577203F
:1004D0007472696D206C6576656C2E0020455252F1
:1004E0004F5220434845434B205445524D000D5038
:1004F0007265737320456E74657220746F20726527
:100500007475726E20746F207468652070726576E1
:10051000696F7573206D656E752E20000D436F6DCC
:100520006D616E64206C697374202D204D75737439
:10053000206265207570706572636173652E0000BE
:100540000D52202D20526573657420737973746584
:100550006D20757074696D6520636C6F636B2E0020
:100560000D50202D2050617573652073797374656B
:100570006D20757074696D6520636C6F636B2061AD
:100580007420697427732063757272656E742070AD
:100590006F696E742E000D54202D20446973706CA9
:1005A0006179207468652063757272656E74207558
:1005B0007074696D6520696E207468652074657259
:1005C0006D696E616C2E00000D41202D204163711C
:1005D000756972652061206E65772073616D706C3E
:1005E00065207365742E00000D53202D204469731F
:1005F000706C6179207468652073756D206F66205A
:100600007468652073616D706C65207365742E204D
:10061000526571756972657320612073616D706CCC
:1006200065207365742E00000D54202D20536574D1
:100630002061206E6577207472696D206C65766527
:100640006C2E204D75737420626520736574206272
:1006500065666F726520612073616D706C652069DD
:10066000732074616B656E2E00000D3E00000D4F0F
:1006700066206F757220656C61626F7261746520AF
:10068000706C616E732C2074686520656E64000068
:100690000D4F662065766572797468696E6720749F
:1006A000686174207374616E64732C2074686520B3
:1006B000656E64000D4E6F20736166657479206FFE
:1006C000722073757270726973652C20746865206E
:1006D000656E64000D49276C6C206E65766572202E
:1006E0006C6F6F6B20696E746F20796F7572206507
:1006F00079657320616761696E0048E20EC044E667
:100700000CC048EC0AC044E014C04AE012C044E106
:1007100010C040E50EC048EC0CC045E000000000F1
:100720000000000000004A95E9F7403061F04A956A
:10073000A1F7D0E3C3E0000000002197F1F74030BB
:1007400011F04A95B1F7089501E007C000E805C02F
:1007500000EC03C000930021089500930020089549
:100760000591003021F0F6DFCCDFE3DF91CC089576
:10077000009300180895DDDF08E300930020CDDF2B
:1007800008E300930020C9DF0CE000930020C5DFE0
:10079000DBDFB3DF06E000930020BFDFF1E0EEE235
:1007A000ACDF00270CE0D0D20027D0DF71DCD7D23D
:1007B0000027CEDFF1E0EEE3B0DF6ADCAADF0895C8
:1007C0005A9541F0A4DF0BB10078D1F30CB1053498
:1007D00011F0F6CF53CC0CE0B7D274D1F6E0EEE6D0
:1007E0009CDFB7D2F6E0E0E998DFB9D2B2D2F6E00A
:1007F000E4EB93DFB4D2ADD2F6E0E4ED8EDFAFD21E
:10080000A8D2ADD2ACD2F4E0EEEEA3D286DFD8DF30
:100810000D30E9F715CC4CDC44DCF2E0E0E67DDF9E
:100820000CE092D293DF34DC41D259D2B0E0A5E69D
:100830005FEF6627772791E03BDC86B3817069F034
:1008400025D140D1013479F0043541F0033539F038
:10085000003039F48FF72CDCEFCF7AC07AC037D173
:10086000FDC035D1F8C09093001086B38470E9F3D1
:10087000809100108D9301E007B900000000000096
:10088000002707B930906400831528F036DF739590
:100890005A9549F705C031DF63955A9521F700C095
:1008A00057DF5DD25CD2F2E0E8E637DF52D257D2B2
:1008B000062F5AD2512E402E072F56D2712E602E5F
:1008C0000CE448DF0CB935DF0AE344DF0CB931DF53
:1008D000042D40DF0CB92DDF052D3CDF0CB929DFDD
:1008E00000E238DF0CB925DF08E434DF0CB921DF82
:1008F0000AE330DF0CB91DDF062D2CDF0CB919DF40
:10090000072D28DF0CB915DF2AD2F2E0E2E805DF77
:1009100026D21FD224D2F4E0EEEE1BD2FEDE86B346
:100920008170B1F0B3D086B3817091F0CBD0033534
:1009300061F00D3049F0043529F0003039F47FF7CB
:10094000B7DBEDCFC4D08DC066CF46C0C0D083C06A
:100950000895F2E0EAEDE1DE02D2FBD100916400FD
:1009600003D20CB9E6DE1CB9E4DEF2E0E8EF22E0E7
:10097000D4DEF5D1EED19CDB86B3817049F3BDDEC8
:1009800085D0BBDE0030B9F3003370F00A3328F4B1
:100990000D3051F00CB900530AC0013428F007346F
:1009A00018F40CB9075303C00CB991D051C02A9563
:1009B00069F4040D00936400D2D1F3E0E4E1ADDE0C
:1009C000CED1C7D163D00D30E9F725CF402E440CEE
:1009D000440C440C440CCFCF6BDB0F930FB70F9339
:1009E0001F932F9311272227BB27CC271FE020EF2F
:1009F000B0E0A5E65FEF002411242224332458DB65
:100A00000D90200C311C5A95D1F7F2E0E6EB85DE13
:100A1000A6D1A5D19ED1032DA7D1512E402E022DB6
:100A2000A3D1712E602E042D0CB983DE052D0CB9D7
:100A300080DE062D0CB97DDE072D0CB97ADE2F91F4
:100A40001F910F910FBF0F91BB27AA2788D110C00C
:100A5000F3E0ECED08C0F3E0E8E905C0F4E0ECE217
:100A600002C0F4E0E0E859DE7AD179D172D155DEE6
:100A700076D1F4E0EEEE6DD150DE1ADB86B38170F4
:100A800021F004D00D30C9F7C6CE62CF11DB86B39A
:100A90008170B9F00BB10078C9F30CB112C008DB5A
:100AA00044D086B3817069F40BB10078C1F30CB106
:100AB00008C086B3817029F40BB10078D1F30CB172
:100AC00000C008950CB92BB12072E9F3089500EC31
:100AD00000930020F4E0ECED0591003019F03ADECF
:100AE00010DEFACF0895DDDAF1E0E8E416DE0CE07E
:100AF0002BD12CDECDDADAD0E1D09FF4D9DA86B36F
:100B0000817081F4CCDFDEDF003551F0023559F021
:100B1000043529F0003041F4CBDA07D0EECF8DC098
:100B200070C070C044C044C0ABC012DE009162000F
:100B300030D11AD1512E402E009161002AD114D10A
:100B4000712E602E0091600024D1802E0DD1A12E37
:100B5000902E08E4FFDDD1DD0AE3FCDDCEDD042DBF
:100B6000F9DDCBDD052DF6DDC8DD00E2F3DDC5DD09
:100B70000DE4F0DDC2DD0AE3EDDDBFDD062DEADDCB
:100B8000BCDD072DE7DDB9DD00E2E4DDB6DD03E520
:100B9000E1DDB3DD0AE3DEDDB0DD082DE9DDADDD4D
:100BA000092DD8DDAADD0A2DD5DDA7DD089508952C
:100BB000F1E0E6E5B2DDD3D0D2D0CBD0F1E0E2EB8C
:100BC000ACDDCDD0C6D09CD073DA86B3817079F716
:100BD00066DF033419F0023529F0F6CF73DF002702
:100BE0000CB981CF6FDF0027009360000093610094
:100BF00000936200F2E0E6E0B2D0B1D0AAD0AFD06C
:100C000047C0F89492DFF2E0ECE1A9D0A8D0A1D0DF
:100C100077D086B3817081F40ED054DF003539F07F
:100C2000023539F0043549F0003051F5F2CF7894AF
:100C30005ACF0027BDCF3DCFBACF3ADA76DFF2E008
:100C4000EEE46BDD8CD08BD084D0042D0CB971DD3B
:100C5000052D0CB96EDD0AE30CB96BDD062D0CB960
:100C600068DD072D0CB965DD0AE30CB962DD092DDD
:100C70000CB95FDD0A2D0CB95CDD71D070D008C0F5
:100C8000F3E0E0E54ADD6BD06AD063D046DD1FDFDC
:100C900066D0F4E0EEEE5DD040DD0ADA86B3817016
:100CA00021F4FDDE0D30C9F71ECF81CF26DDF5E042
:100CB000ECE133DD54D053D04CD0089550D04FD018
:100CC000F5E0E0E42ADD45D04AD0F5E0E0E625DDB8
:100CD00040D045D0F5E0E6E920DD3BD011C03FD063
:100CE0003ED0F5E0E8EC19DD34D039D0F5E0E8EE9F
:100CF00014DD2FD034D0F6E0E8E20FDD2AD000C0BA
:100D0000F6E0EAE60ADD2BD02AD023D0089500E0F1
:100D100000BD09E109B908E10AB906E800BD089576
:100D20001A950DD001930D3011F01A95D1F700E00E
:100D3000008308950BB10078E9F30CB10895FADF50
:100D40000F9302D00F9108950CB90BB10072E9F323
:100D500008950591003011F0F7DFFBCF08950AE008
:100D6000F3DF0DE0F1DF08951127F02E06950695CB
:100D7000069506950F7020E3020F0A3310F027E066
:100D8000020F0F930F2D13951130A1F31F910F91A7
:100D900008951F9311270A5010F0105FFCCF065FD3
:060DA000010F1F910895F0
:00000001FF
