:020000020000FC
:100000000FE50DBF02E00EBF0EEF07BB01BB6FD0C7
:1000100000E805BF9DD0A7D08FD0A5D08DD0A5D0AA
:100020008BD0A5D079D0A5D087D0F0E0E0EF74D008
:100030000027D3D000279FD00AD0CFD000279DD053
:10004000F1E0E0E079D003D073D04DD009C0059144
:10005000003029F094D0B6D063D07AD0F8CF08958C
:10006000F1E0E0E169D0B9D086D0F1DFB0E0A4E6FC
:100070005FEF6627772799274FD09093001080B3C2
:100080000000809100108D93803820F073955A9570
:1000900099F704C063955A9579F700C06ED09DD04A
:1000A000062FA0D0912F802F072F9CD0202F0CE45B
:1000B0008ED065D00AE38BD062D0092F88D05FD074
:1000C000082F85D05CD000E282D059D008E47FD0E0
:1000D00056D00AE37CD053D0012F79D050D0022FD4
:1000E00076D04DD003C043D017D00895FFCF4DC078
:1000F0002044617441514D6F6E5F76312E300000A7
:10010000203230333235373400005356522300004A
:10011000204E4F44453E000048E20EC044E60CC06D
:1001200048EC0AC044E014C04AE012C044E110C0E8
:1001300040E50EC048EC0CC045E0000000000000A7
:10014000000000004A95E9F7403061F04A95A1F7B8
:10015000D0E3C3E0000000002197F1F7403011F038
:100160004A95B1F7089508E30DC00CE00BC001E01B
:1001700009C006E007C000E805C000EC03C000931A
:100180000021089500930020089500E000BD09E1DA
:1001900009B908E10AB906E800BD08951A950DD01D
:1001A00001930D3011F01A95D1F700E00083089506
:1001B0000BB10078E9F30CB10895FADF0F9302D088
:1001C0000F9108950CB90BB10072E9F308950591F0
:1001D000003011F0F7DFFBCF08950AE0F3DF0DE008
:1001E000F1DF08951127F02E0695069506950695E0
:1001F0000F7020E3020F0A3310F027E0020F0F9375
:100200000F2D13951130A1F31F910F9108951F9396
:1002100011270A5010F0105FFCCF065F010F1F91ED
:0202200008953F
:00000001FF
