:020000020000FC
:100000000FE50DBF02E00EBF36D000E805BF4FD0B0
:100010005FD041D05DD03FD05DD03DD05DD051D0DC
:100020005DD039D0F0E0E8E722E040E01AE014D0FB
:1000300032D01591103031F0103281F051D00CD007
:1000400042D0F7CF2A95A9F300EC009300201AE0E4
:1000500003D021D0EECFFFCF1CB908950CE0009360
:10006000002019D0F0E0E0E915911030A1F338D06C
:10007000F3DF2BD0F9CF3AC00D44617441514D6F7D
:100080006E5F76312E30000D32303332353734200A
:10009000204C4F41440025E000000000000000001B
:1000A00000002A95E9F7403091F04A95A1F7D0E396
:1000B000C3E0000000002197F1F7403041F04A957D
:1000C000B1F748E2E8CF4AE0F2CF44E1F0CF08953B
:1000D00008E309C00FE007C001E005C006E003C067
:1000E00010930021089500930020089500E000BDC2
:1000F00009E109B908E10AB906E800BD08951A95B1
:100100000DD001930D3011F01A95D1F700E0008366
:1001100008950BB10078E9F30CB10895FADF0F935D
:1001200002D00F9108950CB90BB10072E9F3089554
:100130000591003011F0F7DFFBCF08950AE0F3DFFF
:060140000DE0F1DF08955F
:00000001FF
