:020000020000FC
:040000001FC077C0E6
:100040000027009363000093600000936100009319
:10005000620000E40BBF0FE50DBF02E00EBF0AEF28
:1000600007BB02E006B91ED002E805BF00E8009316
:10007000640033D3789418D086B3817019F400C02B
:10008000A9D4F9CF4FD3F7CF0591003029F014D37D
:10009000D1D5E9D200D3F8CF089508D3E0D208959E
:1000A000FFCFC3C5AAC5D6C50F930FF50091600059
:1000B0000C3318F4009360001AC00027009360000E
:1000C0000091610003950C3319F0009361000FC09B
:1000D0000027009361000091620003950336C1F38D
:1000E0000093620004C000270093620000C00F91DB
:1000F00008950F930FB70F930091630003950C338E
:1001000030F4009363000F910FBF0F9118950027F3
:1001100000936300009160000395009360000F91CD
:100120000FBF0F9118950D44617441514D6F6E5F73
:1001300076312E30000032303332353734000D53F3
:10014000555045525649534F522300000D57617286
:100150006E696E673A205468652073797374656DB3
:1001600020757074696D652073686F756C64206F9D
:100170006E6C79206265207265736574206D616EA6
:1001800075616C6C7920696E207468652065766590
:100190006E74206F66206D61696E74656E616E634A
:1001A0006520776F726B2E000D506C656173652052
:1001B00070726573732027522720746F20726573E5
:1001C00065742074686520757074696D65206F7240
:1001D0002027432720746F2072657475726E207417
:1001E0006F207468652070726576696F7573206D15
:1001F000656E752E20000D53797374656D207570D2
:1002000074696D652072657365742E000D53797382
:1002100074656D20757074696D65206973207061F7
:10022000757365642E2050726573732027502720E4
:10023000746F20756E70617573652E2000000D530C
:10024000797374656D20757074696D653A2000006E
:100250000D4E4F44453E00000D4E65772073616D95
:10026000706C652073657420636170747572656469
:100270003A000D546F2076696577207468652073A5
:10028000756D206F66207468652063617074757287
:1002900065642073616D706C65732C20707265737A
:1002A0007320275327000D53756D206F6620636FF1
:1002B0006C6C65637465642073616D706C6573202C
:1002C0005B585858585D3A2000000D4375727265AE
:1002D0006E74207472696D206C6576656C2069732C
:1002E000205B58585D3A20000D536574206E657789
:1002F000207472696D206C6576656C205B58585D62
:100300003A2000000D4E6577205472696D206C65AF
:1003100076656C207365742E20507265737320456A
:100320006E74657220746F2072657475726E2074BD
:100330006F2070726576696F7573206D656E7500DC
:100340000D5B4572726F7220307831305D202D2048
:10035000496E76616C696420656E7472792E2050E6
:100360006C6561736520696E7365727420612076B7
:10037000616C69642053757065727669736F722061
:10038000636F6D6D616E64000D5B4572726F7220FC
:10039000307832305D202D20496E76616C696420A2
:1003A000656E7472792E20506C6561736520696E7C
:1003B0007365727420612076616C6964204E6F648D
:1003C0006520636F6D6D616E642E00000D5B45727C
:1003D000726F7220307832315D202D20496E766147
:1003E0006C69642076616C75652E20506C65617354
:1003F0006520696E73657274206120686578207667
:10040000616C7565206265747765656E2030783043
:100410003020616E6420307846462E000D5B4572B8
:10042000726F7220307832325D202D204D697373E7
:10043000696E672073616D706C652E20506C65610C
:1004400073652074616B6520612073616D706C65EC
:10045000206265666F7265207573696E67207468C7
:10046000652073756D20636F6D6D616E642E000085
:100470000D5B4572726F7220307832335D202D2013
:10048000496E76616C6964207472696D20636D6475
:100490002E20506C656173652072656C6F616420FD
:1004A0007468652070616765206265666F7265209B
:1004B000696E70757474696E672061206E6577204F
:1004C0007472696D206C6576656C2E004552524FD2
:1004D0005220434845434B205445524D00000D5097
:1004E0007265737320456E74657220746F20726537
:1004F0007475726E20746F207468652070726576F2
:10050000696F7573206D656E752E20000D436F6DDC
:100510006D616E64206C697374202D204D75737449
:10052000206265207570706572636173652E0000CE
:100530000D52202D20526573657420737973746594
:100540006D20757074696D6520636C6F636B2E0030
:100550000D50202D2050617573652073797374657B
:100560006D20757074696D6520636C6F636B2061BD
:100570007420697427732063757272656E742070BD
:100580006F696E742E000D54202D20446973706CB9
:100590006179207468652063757272656E74207568
:1005A0007074696D6520696E207468652074657269
:1005B0006D696E616C2E00000D41202D204163712C
:1005C000756972652061206E65772073616D706C4E
:1005D00065207365742E00000D53202D204469732F
:1005E000706C6179207468652073756D206F66206A
:1005F0007468652073616D706C65207365742E205E
:10060000526571756972657320612073616D706CDC
:1006100065207365742E00000D54202D20536574E1
:100620002061206E6577207472696D206C65766537
:100630006C2E204D75737420626520736574206282
:1006400065666F726520612073616D706C652069ED
:10065000732074616B656E2E00000D3E000048E251
:100660000EC044E60CC048EC0AC044E014C04AE0A6
:1006700012C044E110C040E50EC048EC0CC045E09B
:10068000000000000000000000004A95E9F740303B
:1006900061F04A95A1F7D0E3C3E000000000219784
:1006A000F1F7403011F04A95B1F7089501E007C025
:1006B00000E805C000EC03C00093002108950093FA
:1006C000002008950591003021F0F6DFCCDFE3DF54
:1006D000DBCC0895009300180895DDDF08E3009354
:1006E0000020CDDF08E300930020C9DF0CE0009379
:1006F0000020C5DFDBDFB3DF06E000930020BFDFB3
:10070000F1E0E6E2ACDF00270CE094D20027D0DF76
:10071000BBDC9BD20027CEDFF1E0E6E3B0DFB4DC48
:10072000AADF0895C1DCB9DCF2E0E0E5A8DF0CE067
:1007300081D2BEDFA9DC30D248D2B0E0A5E65FEFBF
:100740006627772791E086B3817069F016D131D1A1
:10075000013479F0043541F0033539F0003039F4D3
:1007600097F7A2DCF0CF76C076C028D1EEC026D1B4
:10077000E9C09093001086B38470E9F38091001073
:100780008D9301E007B9000000000000002707B9C1
:1007900030906400831528F062DF73955A9549F70D
:1007A00005C05DDF63955A9521F700C083DF4DD208
:1007B0004CD2F2E0E8E563DF42D247D2062F4AD2BC
:1007C000512E402E072F46D2712E602E0CE474DF7E
:1007D0000CB961DF0AE370DF0CB95DDF042D6CDF5B
:1007E0000CB959DF052D68DF0CB955DF00E264DF75
:1007F0000CB951DF08E460DF0CB94DDF0AE35CDFC0
:100800000CB949DF062D58DF0CB945DF072D54DF41
:100810000CB941DF1AD2F2E0E2E731DF16D20FD293
:1008200014D2F4E0EEED0BD22ADF86B3817091F0A2
:10083000A4D086B3817071F0BCD0033541F00D3087
:1008400029F0003029F48FF72FDCEFCF6BCF46C0B3
:10085000B5D07EC00895F2E0EAEC11DFF6D1EFD119
:1008600000916400F7D10CB916DF1CB914DFF2E077
:10087000E8EE22E004DFE9D1E2D116DC86B3817034
:1008800049F3EDDE7AD0EBDE0030B9F3003370F0DF
:100890000A3328F40D3051F00CB900530AC001346A
:1008A00028F0073418F40CB9075303C00CB986D0EC
:1008B00046C02A9569F4040D00936400C6D1F3E0A4
:1008C000E4E0DDDEC2D1BBD158D00D30E9F72ACF4C
:1008D000402E440C440C440C440CCFCF0F930FB764
:1008E0000F93B0E0A5E65FEF002411242224332407
:1008F0000D901D90200C311C5A95D1F7F2E0E6EADC
:10090000BEDEA3D1A2D19BD1032DA4D1512E402E66
:10091000022DA0D1712E602E042D0CB9BCDE052D48
:100920000CB9B9DE062D0CB9B6DE072D0CB9B3DE55
:100930000F910FBF0F91BB27AA2787D110C0F3E0FB
:10094000ECEC08C0F3E0E8E805C0F4E0ECE102C03C
:10095000F4E0E0E794DE79D178D171D190DE75D101
:10096000F4E0EEED6CD18BDE9FDB86B3817021F07D
:1009700004D00D30C9F7D6CE6DCF96DB86B381702B
:10098000B9F00BB10078C9F30CB112C086B3817015
:1009900079F48ADB41D00BB10078C1F30CB108C007
:1009A00086B3817029F40BB10078D1F30CB100C08B
:1009B00008950CB92BB12072E9F3089500EC00936F
:1009C0000020F4E0ECEC0591003019F075DE4BDE10
:1009D000FACF089562DBF1E0EEE351DE0CE02AD1BC
:1009E00067DE52DBD9D0E0D09FF45EDB86B3817046
:1009F00081F4CCDFDEDF003551F0023559F00435EB
:100A000029F0003041F450DB07D0EECF8CC06FC02E
:100A10006FC043C043C0AAC04DDE009162002FD119
:100A200019D1512E402E0091610029D113D1712E80
:100A3000602E0091600023D1802E0CD1A12E902E2B
:100A400008E43ADE0CDE0AE337DE09DE042D34DE8C
:100A500006DE052D31DE03DE00E22EDE00DE0DE4D3
:100A60002BDEFDDD0AE328DEFADD062D25DEF7DDCF
:100A7000072D22DEF4DD00E21FDEF1DD03E51CDEE2
:100A8000EEDD0AE319DE082D25DEE9DD092D14DE91
:100A9000E6DD0A2D11DEE3DD08950895F1E0ECE4D2
:100AA000EEDDD3D0D2D0CBD0F1E0E8EAE8DDCDD096
:100AB000C6D09CD0F9DA86B3817079F767DF03344A
:100AC00019F0023529F0F6CF74DF00270CB982CF78
:100AD00070DF0027009360000093610000936200C4
:100AE000F1E0E6EFB2D0B1D0AAD0AFD047C0F894D1
:100AF00093DFF2E0ECE0A9D0A8D0A1D077D086B304
:100B0000817081F40ED055DF003539F0023539F0AF
:100B1000043549F0003051F5F2CF78945BCF0027CF
:100B2000BDCF3ECFBACFC0DA77DFF2E0EEE3A7DD8C
:100B30008CD08BD084D0042D0CB9ADDD052D0CB933
:100B4000AADD0AE30CB9A7DD062D0CB9A4DD072D3B
:100B50000CB9A1DD0AE30CB99EDD092D0CB99BDDB2
:100B60000A2D0CB998DD71D070D008C0F3E0E0E434
:100B700086DD6BD06AD063D082DD20DF66D0F4E002
:100B8000EEED5DD07CDD90DA86B3817021F4FEDE7F
:100B90000D30C9F71FCF81CF62DDF5E0ECE06FDDEE
:100BA00054D053D04CD0089550D04FD0F5E0E0E36E
:100BB00066DD45D04AD0F5E0E0E561DD40D045D0C6
:100BC000F5E0E6E85CDD3BD011C03FD03ED0F5E07B
:100BD000E8EB55DD34D039D0F5E0E8ED50DD2FD02D
:100BE00034D0F6E0E8E14BDD2AD000C0F6E0EAE5DB
:100BF00046DD2BD02AD023D0089500E000BD09E1C6
:100C000009B908E10AB906E800BD08951A950DD0A2
:100C100001930D3011F01A95D1F700E0008308958B
:100C20000BB10078E9F30CB10895FADF0F9302D00D
:100C30000F9108950CB90BB10072E9F30895059175
:100C4000003011F0F7DFFBCF08950AE0F3DF0DE08D
:100C5000F1DF08951127F02E069506950695069565
:100C60000F7020E3020F0A3310F027E0020F0F93FA
:100C70000F2D13951130A1F31F910F9108951F931C
:100C800011270A5010F0105FFCCF065F010F1F9173
:020C90000895C5
:00000001FF
