:020000020000FC
:100000000FE50DBF02E00EBF0EEF07BB01BB63D0D3
:1000100000E805BFA9D05AD009C00591003029F0E9
:100020009DD0F8D072D089D0F8CF0895F0E0EAEFF3
:1000300078D0FBD08FD0F1DFB0E0A4E65EEF66278A
:10004000772791E05ED09093001080B38170E9F340
:10005000809100108D93803828F053D073955A9575
:1000600089F705C04ED063955A9561F700C074D0EA
:10007000DCD0062F31D0512E402E072F2DD0712EDF
:10008000602E0CE46BD00CB942D00AE367D00CB9F7
:100090003ED0042D63D00CB93AD0052D5FD00CB9F9
:1000A00036D000E25BD00CB932D008E457D00CB99E
:1000B0002ED00AE353D00CB92AD0062D4FD00CB95C
:1000C00026D0072D4BD00CB922D0B6CF41D019D0B5
:1000D0000895FFCF9AC081C0ADC0204461744151E2
:1000E0004D6F6E5F76312E30000020323033323566
:1000F00037340000535652230000204E4F44453EF3
:10010000000048E20EC044E60CC048EC0AC044E0DF
:1001100014C04AE012C044E110C040E50EC048ECF3
:100120000CC045E0000000000000000000004A95FF
:10013000E9F7403061F04A95A1F7D0E3C3E0000051
:1001400000002197F1F7403011F04A95B1F708957A
:1001500001E007C000E805C000EC03C000930021E7
:100160000895009300200895E8DF08E3009300203D
:10017000D8DF08E300930020D4DF0CE000930020D8
:10018000D0DFE6DFBEDF06E000930020CADFF0E04C
:10019000EAEDB7DF002749D00027DCDF3EDF45D09E
:1001A0000027DADFF0E0EAEEBCDF37DFB6DF0895E4
:1001B0001127F02E06950695069506950F7020E3FB
:1001C000020F0A3310F027E0020F0F930F2D139543
:1001D0001130A1F31F910F91089500E000BD09E1D6
:1001E00009B908E10AB906E800BD08951A950DD0CD
:1001F00001930D3011F01A95D1F700E000830895B6
:100200000BB10078E9F30CB10895FADF0F9302D037
:100210000F9108950CB90BB10072E9F3089505919F
:10022000003011F0F7DFFBCF08950AE0F3DF0DE0B7
:10023000F1DF08951127F02E06950695069506958F
:100240000F7020E3020F0A3310F027E0020F0F9324
:100250000F2D13951130A1F31F910F9108951F9346
:1002600011270A5010F0105FFCCF065F010F1F919D
:020270000895EF
:00000001FF
