:020000020000FC
:040000001FC074C0E9
:100040000027009365000093620000936300009313
:10005000640000E40BBF0FE50DBF02E00EBF0AEF26
:1000600007BB02E006B91ED002E805BF00E8009316
:10007000600005D2789418D086B3817019F400C05E
:100080005CD3F9CF21D2F7CF0591003029F0E6D12A
:10009000BCD3BBD1D2D1F8CF0895DAD1B2D1089573
:1000A000FFCFAEC395C3C1C30F93009162000C3361
:1000B00008F41AC0002700936200009163000395C2
:1000C0000C3319F0009363000FC000270093630006
:1000D0000091640003950336C1F30093640004C0EB
:1000E00000270093640000C00F9108950F930FB78D
:1000F0000F930091650003950C3330F40093650075
:100100000F910FBF0F911895002700936500009184
:1001100062000395009362000F910FBF0F91189535
:100120000D44617441514D6F6E5F76312E30000089
:1001300032303332353734000D535550455256491D
:10014000534F522300000D4E4F44453E00000D4ECC
:1001500065772073616D706C6520736574206361D1
:100160007074757265643A000D546F207669657716
:10017000207468652073756D206F66207468652033
:1001800063617074757265642073616D706C657302
:100190002C20707265737320275327000D53756DE3
:1001A000206F6620636F6C6C656374656420736197
:1001B0006D706C6573205B585858585D3A2000008C
:1001C0000D43757272656E74207472696D206C6572
:1001D00076656C206973205B58585D3A20000D539A
:1001E0006574206E6577207472696D206C65766524
:1001F0006C205B58585D3A2000000D4E6577205406
:1002000072696D206C6576656C207365742E205064
:100210007265737320456E74657220746F20726509
:100220007475726E20746F2070726576696F757365
:10023000206D656E75000D5B4572726F72203078AF
:1002400031305D202D20496E76616C696420656EC9
:100250007472792E20506C6561736520696E7365C8
:10026000727420612076616C6964205375706572C8
:100270007669736F7220636F6D6D616E64000D5BE4
:100280004572726F7220307832305D202D20496EB9
:1002900076616C696420656E7472792E20506C658D
:1002A00061736520696E7365727420612076616C7C
:1002B0006964204E6F646520636F6D6D616E642E9E
:1002C00000000D5B4572726F7220307832315D2014
:1002D0002D20496E76616C69642076616C75652E9F
:1002E00020506C6561736520696E7365727420615E
:1002F000206865782076616C756520626574776525
:10030000656E203078303020616E6420307846464B
:100310002E000D5B4572726F7220307832325D2094
:100320002D204D697373696E672073616D706C6504
:100330002E20506C656173652074616B65206120AF
:1003400073616D706C65206265666F726520757390
:10035000696E67207468652073756D20636F6D6DBD
:10036000616E642E00000D5B4572726F72203078F2
:1003700032335D202D20496E76616C696420747281
:10038000696D20636D642E20506C65617365207209
:10039000656C6F61642074686520706167652062B8
:1003A00065666F726520696E70757474696E67201A
:1003B00061206E6577207472696D206C6576656C5E
:1003C0002E004552524F5220434845434B2054453E
:1003D000524D00000D507265737320456E74657246
:1003E00020746F2072657475726E20746F2074684B
:1003F000652070726576696F7573206D656E752EF8
:10040000200048E20EC044E60CC048EC0AC044E0BC
:1004100014C04AE012C044E110C040E50EC048ECF0
:100420000CC045E0000000000000000000004A95FC
:10043000E9F7403061F04A95A1F7D0E3C3E000004E
:1004400000002197F1F7403011F04A95B1F7089577
:1004500001E007C000E805C000EC03C000930021E4
:1004600008950093002008950591003021F0F6DFF3
:10047000CCDFE3DF09CE0895009300180895DDDF97
:1004800008E300930020CDDF08E300930020C9DFDC
:100490000CE000930020C5DFDBDFB3DF06E0009354
:1004A0000020BFDFF1E0E0E2ACDF00270CE0ADD1DF
:1004B0000027D0DFE9DDB4D10027CEDFF1E0E0E3B3
:1004C000B0DFE2DDAADF0895E8DDF1E0E6E4A9DFD0
:1004D0000CE09BD1BFDFD8DDB0E0A1E65FEF66277F
:1004E000772791E086B3817071F00ED186B3817069
:1004F00051F012D1013469F0043531F0033529F09F
:10050000003029F4EFCF74C074C00BD1E5C009D11D
:10051000E0C09093001086B38470E9F380910010DE
:100520008D9301E007B9000000000000002707B923
:1005300030906000831528F064DF73955A9549F771
:1005400005C05FDF63955A9521F700C085DF68D14C
:1005500067D1F1E0EEE465DF5DD162D1062F65D1B0
:10056000512E402E072F61D1712E602E0CE476DFC4
:100570000CB963DF0AE372DF0CB95FDF042D6EDFB5
:100580000CB95BDF052D6ADF0CB957DF00E266DFCF
:100590000CB953DF08E462DF0CB94FDF0AE35EDF1A
:1005A0000CB94BDF062D5ADF0CB947DF072D56DF9C
:1005B0000CB943DF35D1F1E0E8E633DF31D12AD1A0
:1005C0002FD1F3E0E4ED26D12CDF86B3817081F0EA
:1005D0009BD086B3817061F09FD0033531F00D3030
:1005E00019F0003019F4F1CF6FCF45C09AD077C021
:1005F0000895F1E0E0EC15DF13D10CD1009160001B
:1006000014D10CB91ADF1CB918DFF1E0EEED22E0CD
:1006100008DF06D1FFD086B3817051F3F2DE74D0CB
:10062000F0DE0030C1F3003370F00A3328F40D30EF
:1006300051F00CB900530AC0013428F0073418F403
:100640000CB9075303C00CB96CD040C02A9569F4AB
:10065000040D00936000E4D0F1E0EAEFE2DEE0D0C8
:10066000D9D052D00D30E9F72FCF402E440C440C96
:10067000440C440CD0CFB0E0A1E65FEF002411247D
:10068000222433240D901D90200C311C5A95D1F753
:10069000F1E0ECE9C6DEC4D0C3D0BCD0032DC5D098
:1006A000512E402E022DC1D0712E602E042D0CB97A
:1006B000C4DE052D0CB9C1DE062D0CB9BEDE072D3A
:1006C0000CB9BBDEBB27AA27ABD011C0F2E0E2EC2D
:1006D00009C0F2E0EEE706C0F3E0E2E103C0F3E0B8
:1006E000E6E600C09EDE9CD09BD094D09ADE98D0E7
:1006F000F3E0E4ED8FD095DE86B3817021F004D075
:100700000D30D1F7E1CE74CF86B3817021F00BB1FB
:100710000078D1F30CB108950CB92BB12072E9F334
:10072000089500EC00930020F3E0E2EC0591003026
:1007300019F094DE6ADEFACF0895B6DCAEDCF1E0A3
:10074000E8E36FDE0CE061D085DE9EDCADDCACDC86
:1007500086B3817011F4A8DC01C039C07DDE009140
:10076000640078D062D0512E402E0091630072D088
:100770005CD0712E602E08E471DE47DE0AE36EDE87
:1007800044DE042D6BDE41DE052D68DE3EDE00E238
:1007900065DE3BDE0DE462DE38DE0AE35FDE35DE79
:1007A000062D5CDE32DE072D59DE2FDE00E256DE3E
:1007B0002CDE03E553DE29DE0AE350DE082D5CDE85
:1007C000092D4CDE22DE0A2D49DE1FDEC0CF089542
:1007D00000E000BD09E109B908E10AB906E800BD79
:1007E00008951A950DD001930D3011F01A95D1F797
:1007F00000E0008308950BB10078E9F30CB108958F
:10080000FADF0F9302D00F9108950CB90BB100726B
:10081000E9F308950591003011F0F7DFFBCF08955B
:100820000AE0F3DF0DE0F1DF08951127F02E0695C1
:100830000695069506950F7020E3020F0A3310F017
:1008400027E0020F0F930F2D13951130A1F31F9185
:100850000F9108951F9311270A5010F0105FFCCFDD
:08086000065F010F1F910895CE
:00000001FF
