:020000020000FC
:100000000FE50DBF02E00EBF0AEF07BB02E006B925
:1000100016D000E805BF00E80093650011D10AD0B2
:1000200058D10591003029F005D1EBD1DAD0F1D0CB
:10003000F8CF0895F9D0D1D00895FFCFDDC1C4C164
:10004000F0C10D44617441514D6F6E5F76312E30B9
:10005000000032303332353734000D53555045529D
:100060005649534F522320000D4E4F44453E000049
:100070000D43757272656E74207472696D206C65C3
:1000800076656C206973205B58585D3A20000D53EB
:100090006574206E6577207472696D206C65766575
:1000A0006C205B58585D20616E642068697420453F
:1000B0006E746572206B65793A2000000D5B4572A5
:1000C000726F7220307831305D202D20496E76615C
:1000D0006C696420656E7472792E20506C65617352
:1000E0006520696E7365727420612076616C696445
:1000F0002053757065727669736F7220636F6D6DD2
:10010000616E64000D5B4572726F72203078323020
:100110005D202D20496E76616C696420656E747275
:10012000792E20506C6561736520696E73657274F9
:1001300020612076616C6964204E6F646520636F76
:100140006D6D616E642E00000D5B4572726F7220E2
:10015000307832315D202D20496E76616C696420E3
:1001600076616C75652E20506C6561736520696ED3
:10017000736572742061206865782076616C75659E
:10018000206265747765656E203078303020616E4E
:100190006420307846462E000D4552524F52202D95
:1001A00020434845434B205445524D000D50726545
:1001B000737320456E74657220746F207265747558
:1001C000726E20746F207468652070726576696F36
:1001D0007573206D656E752E000048E20EC044E612
:1001E0000CC048EC0AC044E014C04AE012C044E12C
:1001F00010C040E50EC048EC0CC045E00000000017
:100200000000000000004A95E9F7403061F04A958F
:10021000A1F7D0E3C3E0000000002197F1F74030E0
:1002200011F04A95B1F7089501E007C000E805C054
:1002300000EC03C00093002108950093002008956E
:10024000E8DF08E300930020D8DF08E300930020F4
:10025000D4DF0CE000930020D0DFE6DFBEDF06E055
:1002600000930020CADFF0E0E2E4B7DF0027D4D03B
:100270000027DCDFD6DED0D00027DADFF0E0E2E5D1
:10028000BCDFCFDEB6DF08951127F02E0695069568
:10029000069506950F700A3028F0085020E3020FEB
:1002A00027E0020F0F930F2D1395113099F31F9133
:1002B0000F910895F1E0E4E0A0DFAED0ADD0A6D07C
:1002C0009CDFAAD0F1E0ECEAA1D097DF73D00D302B
:1002D000E9F7F0E0E8E691DF0CE093D0A7DFA1DEDC
:1002E000B0E0A4E65EEF6627772791E063D067D0A1
:1002F000013419F00030F1F6F9CF9093001086B375
:100300008470E9F3809100108D9301E007B900003B
:1003100000000000002707B9803828F05EDF7395E1
:100320005A9559F705C059DF63955A9531F700C0C2
:100330007FDF72D0062F75D0512E402E072F71D03F
:10034000712E602E0CE476DF0CB963DF0AE372DFF6
:100350000CB95FDF042D6EDF0CB95BDF052D6ADFA2
:100360000CB957DF00E266DF0CB953DF08E462DF47
:100370000CB94FDF0AE35EDF0CB94BDF062D5ADF05
:100380000CB947DF072D56DF0CB943DFA9CF08951D
:10039000F0E0E0E732DF40D039D00091650041D095
:1003A0000CB937DF012F0CB934DFF0E0EEE825DFC0
:1003B00033D02CD00BB10078E9F30CB108950CB90F
:1003C0002BB12072E9F3089500E000BD09E109B9FD
:1003D00008E10AB906E800BD08951A950DD0019309
:1003E0000D3011F01A95D1F700E0008308950BB19C
:1003F0000078E9F30CB10895FADF0F9302D00F9162
:1004000008950CB90BB10072E9F30895059100301D
:1004100011F0F7DFFBCF08950AE0F3DF0DE0F1DF25
:1004200008951127F02E06950695069506950F70EE
:1004300020E3020F0A3310F027E0020F0F930F2D75
:1004400013951130A1F31F910F9108951F93112758
:100450000A5010F0105FFCCF065F010F1F91089546
:00000001FF
