:020000020000FC
:100000000FE50DBF02E00EBF0AEF07BB02E006B925
:1000100016D000E805BF00E80093650026D10AD09D
:100020006FD10591003029F01AD132D2EFD006D12C
:10003000F8CF08950ED1E6D00895FFCF24C20BC2A9
:1000400037C20D44617441514D6F6E5F76312E3071
:10005000000032303332353734000D53555045529D
:100060005649534F522320000D4E4F44453E000049
:100070000D43757272656E74207472696D206C65C3
:1000800076656C206973205B58585D3A20000D53EB
:100090006574206E6577207472696D206C65766575
:1000A0006C205B58585D3A2000000D4E6577205457
:1000B00072696D206C6576656C207365742E2050B6
:1000C0007265737320456E74657220746F2072655B
:1000D0007475726E20746F2070726576696F7573B7
:1000E000206D656E75000D5B4572726F7220307801
:1000F00031305D202D20496E76616C696420656E1B
:100100007472792E20506C6561736520696E736519
:10011000727420612076616C696420537570657219
:100120007669736F7220636F6D6D616E64000D5B35
:100130004572726F7220307832305D202D20496E0A
:1001400076616C696420656E7472792E20506C65DE
:1001500061736520696E7365727420612076616CCD
:100160006964204E6F646520636F6D6D616E642EEF
:1001700000000D5B4572726F7220307832315D2065
:100180002D20496E76616C69642076616C75652EF0
:1001900020506C6561736520696E736572742061AF
:1001A000206865782076616C756520626574776576
:1001B000656E203078303020616E6420307846469D
:1001C0002E000D4552524F52202D20434845434B9F
:1001D000205445524D000D507265737320456E7466
:1001E000657220746F2072657475726E20746F2052
:1001F0007468652070726576696F7573206D656EC1
:10020000752E000048E20EC044E60CC048EC0AC05F
:1002100044E014C04AE012C044E110C040E50EC002
:1002200048EC0CC045E000000000000000000000A9
:100230004A95E9F7403061F04A95A1F7D0E3C3E071
:10024000000000002197F1F7403011F04A95B1F716
:10025000089501E007C000E805C000EC03C000936A
:1002600000210895009300200895E8DF08E300933B
:100270000020D8DF08E300930020D4DF0CE00093D7
:100280000020D0DFE6DFBEDF06E000930020CADFFB
:10029000F0E0E2E4B7DF00270CE0FAD00027DBDF74
:1002A000C0DE01D10027D9DFF0E0E2E5BBDFB9DE37
:1002B000B5DF08951127F02E06950695069506954B
:1002C0000F700A3028F0085020E3020F27E0020FD9
:1002D0000F930F2D1395113099F31F910F910895DE
:1002E000F1E0EEE200C09EDFDED0DDD0D6D09ADFB6
:1002F000DAD0F1E0E6EDD1D095DFA3D00D30E9F70B
:10030000F0E0E8E68FDF0CE0C3D0A5DF8ADEB0E0E6
:10031000A4E65EEF6627772791E093D097D001346B
:1003200031F0043519F00030D9F6F7CF4BC0909377
:10033000001086B38470E9F3809100108D9301E082
:1003400007B9000000000000002707B9803828F036
:1003500059DF73955A9559F705C054DF63955A953F
:1003600031F700C07ADF9FD0062FA2D0512E402E49
:10037000072F9ED0712E602E0CE471DF0CB95EDF6A
:100380000AE36DDF0CB95ADF042D69DF0CB956DFC3
:10039000052D65DF0CB952DF00E261DF0CB94EDFDD
:1003A00008E45DDF0CB94ADF0AE359DF0CB946DF28
:1003B000062D55DF0CB942DF072D51DF0CB93EDFAA
:1003C000A6CF0895F0E0E0E72DDF6DD066D0009174
:1003D00065006ED00CB932DF012F0CB92FDFF0E0D1
:1003E000EEE822E01FDF5FD058D00CDF2AD00ADF12
:1003F000003320F10A3338F40030B9F30D30F1F056
:100400000CB9005306C00134C8F00734E0F70CB94A
:1004100007532A9569F4040D0093650044D0F0E079
:10042000EAEA00DF40D039D00CD00D30E9F768CFD0
:10043000402E440C440C440C440CD7CFF1E0E2E7CE
:1004400052CF0BB10078E9F30CB108950CB92BB180
:100450002072E9F3089500E000BD09E109B908E15F
:100460000AB906E800BD08951A950DD001930D3024
:1004700011F01A95D1F700E0008308950BB10078D0
:10048000E9F30CB10895FADF0F9302D00F910895AC
:100490000CB90BB10072E9F308950591003011F029
:1004A000F7DFFBCF08950AE0F3DF0DE0F1DF0895F9
:1004B0001127F02E06950695069506950F7020E3F8
:1004C000020F0A3310F027E0020F0F930F2D139540
:1004D0001130A1F31F910F9108951F9311270A5016
:0E04E00010F0105FFCCF065F010F1F91089512
:00000001FF
