:020000020000FC
:100000000FE50DBF02E00EBF00E805BF08E3009357
:10001000002030D008E3009300202CD00FE00093A4
:10002000002028D001E00093002024D006E00093B7
:10003000002020D000E000BD09E109B908E10AB9BB
:1000400006E800BDF0E0E8E922E015911D3029F056
:100050001032D9F00CD00ED0F8CF2A95B1F300ECC5
:100060000093002007D0F1CFFFCF10930021109311
:1000700000211CB9D4EFC4E22197F1F7089515913E
:10008000103091F3F2DFF6DFFACF0CE0009300209E
:10009000F1DFF0E0EEEAF3CF44617441514D6F6E51
:1000A0005F76312E300D3230333235373420202E0A
:0400B000A5DF2A009E
:00000001FF
