:020000020000FC
:020000001FC01F
:100040000FE50DBF02E00EBFB0E0A0E630E237D012
:1000500028D013E0F0E0E2ED05910F3F19F02AD02F
:100060001A95D1F719D026D005D00D3059F00D933F
:100070001395F8CF013418F00B3508F4030F0895E9
:10008000F1E0EEE005910E3F11F014D0FBCF0E91A0
:1000900011D01A95E1F7D4CF0BB10078E9F30CB188
:1000A000089500E000BD09E109B908E10AB906E8D0
:1000B00000BD08950CB92BB12072E9F30895D4EF77
:1000C000C4E2B4E0D4EFC4E22197F1F7B150D1F724
:1000D0000895415343494920536372616D626C65D1
:1000E000722056310A0D62793A204E6174652053B0
:1000F000696D6172642D57686974650A0D0A0D0097
:10010000456E746572206C696E650A0D3EFF0A0DBE
:100110000A0D4D6F646966696564206C696E650AD5
:040120000D3E3EFE54
:00000001FF
