:020000020000FC
:020000001FC01F
:100040000FE50DBF02E00EBFB0E0A0E630E238D011
:1000500029D013E0F0E0E4ED05910F3F19F02BD02B
:100060001A95D1F719D027D005D00D3059F00D933E
:100070001395F8CF013418F00B3508F4030F0895E9
:10008000F1E0E0E105910E3F11F015D0FBCF0E91AC
:1000900012D01A95E1F7D4CF00270BB10078E1F325
:1000A0000CB1089500E000BD09E109B908E10AB901
:1000B00006E800BD08950CB92BB12072E9F308954C
:1000C000D4EFC4E2B4E0D4EFC4E22197F1F7B15029
:1000D000D1F70895415343494920536372616D62DA
:1000E0006C65722056310A0D62793A204E61746552
:1000F0002053696D6172642D57686974650A0D0A31
:100100000D00456E746572206C696E650A0D3EFFC8
:100110000A0D0A0D4D6F646966696564206C696E2D
:06012000650A0D3E3EFEE3
:00000001FF
