:020000020000FC
:020000001FC01F
:1000400000000FE50DBF02E00EBF2FE026B9F0E083
:10005000EAE919D00AD013E022270591200F0ED02B
:100060002D30D1F71A95C1F7F2CF00E000BD09E1BC
:1000700009B908E10AB906E800BD08950CB90BB149
:100080000072E9F30895D4EFC4E2B4E0D4EFC4E21F
:100090002197F1F7B150D1F708954C6162203035C6
:1000A0000A0D4E6174652053696D6172642D576845
:1000B0006974650A0D00323032332D31302D3136FE
:0200C0000A0D27
:00000001FF
