:020000020000FC
:020000001FC01F
:100040000FE50DBF02E00EBF47D003D019D028D076
:10005000FCCF6AD0ECE5F0E061D0089543686172AE
:100060006163746572205374617473203276340A4C
:100070000D4279204D722E4D61726B6F750A0D0025
:1000800053D0E2E9F0E04AD018E2E0E6F0E02DD00B
:100090000895456E746572206C696E653E0A0D00A8
:1000A00043D042D0ECEBF0E039D008E2011B56D04F
:1000B00040D02FD0012F2DD037D00895546F7461C8
:1000C0006C204E756D65726963206368617261634F
:1000D00074657273203D200000E000BD09E109B99C
:1000E00008E10AB906E800BD08951A950DD00193FC
:1000F0000D3011F01A95D1F700E0008308950BB18F
:100100000078E9F30CB10895FADF0F9302D00F9154
:1001100008950CB90BB10072E9F308950591003010
:1001200011F0F7DFFBCF08950AE0F3DF0DE0F1DF18
:1001300008951127F02E06950695069506950F70E1
:1001400020E3020F0A3310F027E0020F0F930F2D68
:1001500013951130A1F31F910F9108951F9311274B
:100160000A5010F0105FFCCF065F010F1F91089539
:00000001FF
