:020000020000FC
:0400000015C02EC039
:10002C0000000FE50DBF02E00EBF00E000BD09E1CE
:10003C0009B908E10AB906E800BD089500E40BBF50
:10004C0003E005BF00E3009360007894000002D049
:10005C001BD0FCCF0F93009160000395083231F058
:10006C000BD00CB9009360000F91189500E300932E
:10007C00600002D00CB9F8CF25912CB92D33E1F7E3
:10008C002BB12072E9F30895D4EFC4E2B4E0D4EFBD
:10009C00C4E22197F1F7B150D1F708950A0D5365D9
:0800AC00636F6E64203D20002B
:00000001FF
