:020000020000FC
:0400000015C031C036
:10002C0000000FE50DBF02E00EBFF0E0EAEA00E0D1
:10003C0000BD09E109B908E10AB906E800BD089557
:10004C0000E40BBF03E005BF00E30093600078946D
:10005C00F0E0EAEA000019D0FBCF0F9300916000AA
:10006C000395083229F00CB9009360000F91189594
:10007C0000E3009360000CB9F9CF25912CB92D3316
:10008C00E1F72BB12072E9F30895D4EFC4E2B4E0A8
:10009C00D4EFC4E22197F1F7B150D1F708950A0DCE
:0A00AC005365636F6E64203D200071
:00000001FF
